{
  "contractName": "Blockin",
  "abi": [
    {
      "inputs": [],
      "payable": false,
      "stateMutability": "nonpayable",
      "type": "constructor"
    },
    {
      "anonymous": false,
      "inputs": [
        {
          "indexed": false,
          "internalType": "uint256",
          "name": "id",
          "type": "uint256"
        },
        {
          "indexed": false,
          "internalType": "string",
          "name": "movie",
          "type": "string"
        },
        {
          "indexed": false,
          "internalType": "uint256",
          "name": "upvotes",
          "type": "uint256"
        },
        {
          "indexed": false,
          "internalType": "address payable",
          "name": "proposer",
          "type": "address"
        }
      ],
      "name": "MovieAdded",
      "type": "event"
    },
    {
      "anonymous": false,
      "inputs": [
        {
          "indexed": false,
          "internalType": "uint256",
          "name": "id",
          "type": "uint256"
        },
        {
          "indexed": false,
          "internalType": "string",
          "name": "movie",
          "type": "string"
        },
        {
          "indexed": false,
          "internalType": "uint256",
          "name": "upvotes",
          "type": "uint256"
        },
        {
          "indexed": false,
          "internalType": "address payable",
          "name": "proposer",
          "type": "address"
        }
      ],
      "name": "UpvoteCost",
      "type": "event"
    },
    {
      "constant": true,
      "inputs": [],
      "name": "movieCount",
      "outputs": [
        {
          "internalType": "uint256",
          "name": "",
          "type": "uint256"
        }
      ],
      "payable": false,
      "stateMutability": "view",
      "type": "function"
    },
    {
      "constant": true,
      "inputs": [
        {
          "internalType": "uint256",
          "name": "",
          "type": "uint256"
        }
      ],
      "name": "movielists",
      "outputs": [
        {
          "internalType": "uint256",
          "name": "id",
          "type": "uint256"
        },
        {
          "internalType": "string",
          "name": "movie",
          "type": "string"
        },
        {
          "internalType": "uint256",
          "name": "upvotes",
          "type": "uint256"
        },
        {
          "internalType": "address payable",
          "name": "proposer",
          "type": "address"
        }
      ],
      "payable": false,
      "stateMutability": "view",
      "type": "function"
    },
    {
      "constant": true,
      "inputs": [],
      "name": "name",
      "outputs": [
        {
          "internalType": "string",
          "name": "",
          "type": "string"
        }
      ],
      "payable": false,
      "stateMutability": "view",
      "type": "function"
    },
    {
      "constant": false,
      "inputs": [
        {
          "internalType": "string",
          "name": "_movies",
          "type": "string"
        }
      ],
      "name": "addMovies",
      "outputs": [],
      "payable": false,
      "stateMutability": "nonpayable",
      "type": "function"
    },
    {
      "constant": false,
      "inputs": [
        {
          "internalType": "uint256",
          "name": "_id",
          "type": "uint256"
        }
      ],
      "name": "upvotecost",
      "outputs": [],
      "payable": true,
      "stateMutability": "payable",
      "type": "function"
    }
  ],
  "bytecode": "0x6080604052600060025534801561001557600080fd5b506040518060400160405280600781526020017f426c6f636b696e0000000000000000000000000000000000000000000000000081525060009080519060200190610061929190610067565b5061010c565b828054600181600116156101000203166002900490600052602060002090601f016020900481019282601f106100a857805160ff19168380011785556100d6565b828001600101855582156100d6579182015b828111156100d55782518255916020019190600101906100ba565b5b5090506100e391906100e7565b5090565b61010991905b808211156101055760008160009055506001016100ed565b5090565b90565b610a968061011b6000396000f3fe60806040526004361061004a5760003560e01c806306fdde031461004f5780632f807033146100df578063628afd061461010d578063783f9a67146101d5578063a1daf326146102ca575b600080fd5b34801561005b57600080fd5b506100646102f5565b6040518080602001828103825283818151815260200191508051906020019080838360005b838110156100a4578082015181840152602081019050610089565b50505050905090810190601f1680156100d15780820380516001836020036101000a031916815260200191505b509250505060405180910390f35b61010b600480360360208110156100f557600080fd5b8101908080359060200190929190505050610393565b005b34801561011957600080fd5b506101d36004803603602081101561013057600080fd5b810190808035906020019064010000000081111561014d57600080fd5b82018360208201111561015f57600080fd5b8035906020019184600183028401116401000000008311171561018157600080fd5b91908080601f016020809104026020016040519081016040528093929190818152602001838380828437600081840152601f19601f8201169050808301925050505050505091929192905050506106c0565b005b3480156101e157600080fd5b5061020e600480360360208110156101f857600080fd5b8101908080359060200190929190505050610890565b60405180858152602001806020018481526020018373ffffffffffffffffffffffffffffffffffffffff1673ffffffffffffffffffffffffffffffffffffffff168152602001828103825285818151815260200191508051906020019080838360005b8381101561028c578082015181840152602081019050610271565b50505050905090810190601f1680156102b95780820380516001836020036101000a031916815260200191505b509550505050505060405180910390f35b3480156102d657600080fd5b506102df610978565b6040518082815260200191505060405180910390f35b60008054600181600116156101000203166002900480601f01602080910402602001604051908101604052809291908181526020018280546001816001161561010002031660029004801561038b5780601f106103605761010080835404028352916020019161038b565b820191906000526020600020905b81548152906001019060200180831161036e57829003601f168201915b505050505081565b6000811180156103a557506002548111155b6103ae57600080fd5b6103b661097e565b6001600083815260200190815260200160002060405180608001604052908160008201548152602001600182018054600181600116156101000203166002900480601f0160208091040260200160405190810160405280929190818152602001828054600181600116156101000203166002900480156104775780601f1061044c57610100808354040283529160200191610477565b820191906000526020600020905b81548152906001019060200180831161045a57829003601f168201915b50505050508152602001600282015481526020016003820160009054906101000a900473ffffffffffffffffffffffffffffffffffffffff1673ffffffffffffffffffffffffffffffffffffffff1673ffffffffffffffffffffffffffffffffffffffff168152505090506000816060015190508073ffffffffffffffffffffffffffffffffffffffff166108fc349081150290604051600060405180830381858888f19350505050158015610531573d6000803e3d6000fd5b5034826040015101826040018181525050816001600085815260200190815260200160002060008201518160000155602082015181600101908051906020019061057c9291906109bc565b506040820151816002015560608201518160030160006101000a81548173ffffffffffffffffffffffffffffffffffffffff021916908373ffffffffffffffffffffffffffffffffffffffff1602179055509050507f171aecaa2b0f44b15a5003977f0d817bb11b7aff9750b15c66dd5571a4bbbbcc600254836020015184604001518460405180858152602001806020018481526020018373ffffffffffffffffffffffffffffffffffffffff1673ffffffffffffffffffffffffffffffffffffffff168152602001828103825285818151815260200191508051906020019080838360005b8381101561067e578082015181840152602081019050610663565b50505050905090810190601f1680156106ab5780820380516001836020036101000a031916815260200191505b509550505050505060405180910390a1505050565b60008151116106ce57600080fd5b60026000815480929190600101919050555060405180608001604052806002548152602001828152602001600081526020013373ffffffffffffffffffffffffffffffffffffffff168152506001600060025481526020019081526020016000206000820151816000015560208201518160010190805190602001906107559291906109bc565b506040820151816002015560608201518160030160006101000a81548173ffffffffffffffffffffffffffffffffffffffff021916908373ffffffffffffffffffffffffffffffffffffffff1602179055509050507f401634926f271059111397549fb6dd03c23903eadf13124a0ba59ab033b67a846002548260003360405180858152602001806020018481526020018373ffffffffffffffffffffffffffffffffffffffff1673ffffffffffffffffffffffffffffffffffffffff168152602001828103825285818151815260200191508051906020019080838360005b83811015610850578082015181840152602081019050610835565b50505050905090810190601f16801561087d5780820380516001836020036101000a031916815260200191505b509550505050505060405180910390a150565b6001602052806000526040600020600091509050806000015490806001018054600181600116156101000203166002900480601f0160208091040260200160405190810160405280929190818152602001828054600181600116156101000203166002900480156109425780601f1061091757610100808354040283529160200191610942565b820191906000526020600020905b81548152906001019060200180831161092557829003601f168201915b5050505050908060020154908060030160009054906101000a900473ffffffffffffffffffffffffffffffffffffffff16905084565b60025481565b6040518060800160405280600081526020016060815260200160008152602001600073ffffffffffffffffffffffffffffffffffffffff1681525090565b828054600181600116156101000203166002900490600052602060002090601f016020900481019282601f106109fd57805160ff1916838001178555610a2b565b82800160010185558215610a2b579182015b82811115610a2a578251825591602001919060010190610a0f565b5b509050610a389190610a3c565b5090565b610a5e91905b80821115610a5a576000816000905550600101610a42565b5090565b9056fea265627a7a72315820e2b74443b71f6e8fc2730615c7ceea747e6cff7496dbd6ccd4ffe9854282666c64736f6c63430005100032",
  "source": "pragma solidity  >=0.4.21 <0.6.0;\n\ncontract Blockin{\n    string public name;\n    mapping(uint => MovieList) public movielists;\n    uint public movieCount=0;\n    struct MovieList{\n        uint id;\n        string movie;\n        uint upvotes;\n        address payable proposer;\n    }\n    event MovieAdded(\n        uint id,\n        string movie,\n        uint upvotes,\n        address payable proposer\n    );\n    event UpvoteCost(\n        uint id,\n        string movie,\n        uint upvotes,\n        address payable proposer\n    );\n    constructor() public{\n        name=\"Blockin\";    \n    }\n    function addMovies(string memory _movies) public{\n        //Require valid content\n        require(bytes(_movies).length>0);\n       movieCount++;//Increments Movie Count\n        movielists[movieCount]=MovieList(movieCount,_movies,0,msg.sender);//Adds a movie\n        emit MovieAdded(movieCount,_movies,0,msg.sender);\n    }\n    function upvotecost(uint _id) public payable{\n        require (_id >0 && _id<=movieCount); //  \n                    \n        //Fetch the Movie\n        MovieList memory _addmovie=movielists[_id];\n        //Fetch the Proposer\n        address  payable _proposer= _addmovie.proposer;\n        //Pay the Proposer\n        address(_proposer).transfer(msg.value);\n        //Increment the upvote\n        _addmovie.upvotes = _addmovie.upvotes + msg.value;\n        //Update the post\n        movielists[_id] = _addmovie;\n        //Triggger an event\n        emit UpvoteCost(movieCount,_addmovie.movie,_addmovie.upvotes,_proposer);\n\n\n    }\n}\n\n",
  "sourcePath": "/home/hellion/Music/starter_kit-master/contracts/Blockin.sol",
  "compiler": {
    "name": "solc",
    "version": "0.5.16+commit.9c3226ce.Emscripten.clang"
  },
  "schemaVersion": "3.2.0",
  "updatedAt": "2020-08-05T21:15:23.645Z",
  "networkType": "ethereum",
  "devdoc": {
    "methods": {}
  },
  "userdoc": {
    "methods": {}
  }
}